:020000040800F2
:10000000500B0020C10100089B1C0008E11A0008E9
:10001000991C0008790300088124000800000000F2
:10002000000000000000000000000000531D000858
:10003000B1030008000000009D1C0008C11D00085D
:10004000DB010008DB010008DB010008DB01000820
:10005000DB010008DB010008D9030008DB01000810
:10006000DB010008DB010008DF030008DB010008FA
:10007000DB010008DB010008DB010008DB010008F0
:10008000DB010008DB010008DB010008DB010008E0
:10009000DB010008DB010008DB010008DB010008D0
:1000A000DB010008A91E00089D1E0008DB010008F6
:1000B000DB010008DB010008DB010008DB010008B0
:1000C000DB010008DB010008DB010008DB010008A0
:1000D000DB01000875240008DB010008DB010008D3
:1000E000DB010008DB010008DB010008DB01000880
:1000F000DB010008DB010008DB010008DB01000870
:10010000DB010008DB010008DB010008DB0100085F
:10011000DB010008DB010008DB010008DB0100084F
:10012000DB010008DB010008DB010008DB0100083F
:10013000DB010008DB010008DB010008DB0100082F
:10014000DB010008DB010008DB010008DB0100081F
:10015000DB010008DB010008DB010008DB0100080F
:10016000DB010008DB010008DB010008DB010008FF
:10017000DB010008DB010008DB01000800000000D3
:10018000DB010008DB010008DB010008DB010008DF
:10019000DB010008DB010008DB010008DB010008CF
:1001A000DB010008DB010008DB010008DFF80CD0F0
:1001B00000F0A6F800480047D12C0008500B0020A2
:1001C0000648804706480047FEE7FEE7FEE7FEE7F1
:1001D000FEE7FEE7FEE7FEE7FEE7FEE7491E000852
:1001E000AD0100082DE9F05F0546002092469B46D0
:1001F00088460646814640241BE02846414647463D
:10020000224600F06DF853465A46C01A914110D369
:1002100011461846224600F054F82D1A67EB0108E3
:100220004F4622460120002100F04BF817EB000951
:100230004E41201EA4F10104DFDC484631462A4627
:100240004346BDE8F09FD2B201E000F8012B491E01
:10025000FBD270470022F6E710B513460A46044663
:100260001946FFF7F0FF204610BD421C10F8011B95
:100270000029FBD1801A704730B50546002003469F
:1002800000E05B1C934205D2EC5CC85C201A01D1F3
:10029000002CF6D130BD30B50B460146002020229F
:1002A000012409E021FA02F59D4205D303FA02F583
:1002B000491B04FA02F52844151EA2F10102F1DCE3
:1002C00030BD202A04DB203A00FA02F100207047FA
:1002D0009140C2F1200320FA03F319439040704784
:1002E000202A04DB203A21FA02F00021704721FA8B
:1002F00002F3D040C2F120029140084319467047F2
:10030000064C074D06E0E06840F0010394E8070062
:1003100098471034AC42F6D3FFF74CFF0C3300087B
:100320002C330008114D00241149EC60EC802C6145
:100330002C810C600C818C81CC814FF6BA70888046
:100340000C4902F037F800BF02F082FC022000F0F6
:1003500097FAA87810B102F079FEAC7028780028DE
:10036000F2D001F0F7FC2C70EEE70000480000200E
:10037000CC0500203D310008FEE7D3B2C2F30722CE
:1003800042EA032206E0012907D030F8023B891E29
:100390001A4489B20029F6D105E0008852FA80F2A9
:1003A00001E091B20A18100CFBD1D04380B2704723
:1003B0007047000001B582B000208DF80400401E97
:1003C0000090012301AA02A9024800F0D7FF9DF87E
:1003D00004000EBDDC050020012000F011BB102040
:1003E00000F00EBB002229B101291DD002291ED028
:1003F0004FF440720B2800D9001D0E490B6823F4FE
:1004000040730B600B6813430B600A6822F0F8021C
:100410000A600A68022303EBC00002430A6008680E
:1004200040F48030086070474FF48072E2E74FF488
:100430000072DFE7103C02401348016889050FD5C0
:10044000016821F400710160016841F400610160FC
:10045000016821F400610160016841F400710160EC
:10046000016849050FD5016821F4806101600168C8
:1004700041F480510160016821F4805101600168FC
:1004800041F4806101607047003C024010B586B0C5
:1004900000F09EFA0D4800F023F904460C4800F0E5
:1004A0001FF9011B0020009002200294CDE90310E7
:1004B00005A9684600F0F6F9044600F041FA14B1C7
:1004C000012006B010BD0020FBE7000000800008FE
:1004D00000000C0810B500F07BFA0349F320086017
:1004E000BDE8104000F02CBA0C3C02402DE9F04170
:1004F000164688460546002400F06AFA104F17E0B9
:1005000058F8242000232946022000F023FA20B1C5
:1005100000F016FA0320BDE8F08158F8240029689D
:10052000814203D000F00CFA0220F4E7641C2D1D78
:10053000B44201D2BD42E3D900F002FA0020EAE75A
:10054000FCFF0B080E4A136823F440731360032961
:100550000DD0012911680FD041F4004111601168DC
:100560004FF4803343EA0020014311607047116863
:1005700048F204031943F1E741F00401EEE70000FB
:10058000103C0240064A136823F44073136013685A
:100590001360136843F0010313600170704700009B
:1005A000103C0240084910B50C6824F440740C60FB
:1005B0000C6844F440740C600C6844F001040C6056
:1005C0000260436010BD0000103C0240074A1368FF
:1005D00023F440731360136843F48073136013684B
:1005E00043F001031360018070470000103C02409B
:1005F000074A136823F440731360136843F40073CD
:100600001360136843F0010313600160704700003A
:10061000103C02401C490868C2061C4805D5C26946
:1006200042F01002C26110220A600A68920605D5E3
:10063000C26942F00802C26120220A600A685206BA
:1006400005D5C26942F00402C26140220A600A680C
:10065000120605D5C26942F00202C26180220A6018
:100660000A68D20506D5C26942F00102C2614FF4A0
:1006700080720A600A68920705D5C26942F02002BA
:10068000C2610220086070470C3C0240F406002062
:1006900070B5114904460020C86100F0A9FA064669
:1006A0000E4D09E0601C07D024B100F0A1FA801BB8
:1006B000A04201D9032070BD2868C003F2D4286885
:1006C000C00701D001202860286810F4F970F2D02A
:1006D000FFF7A0FF012070BDF40600200C3C024093
:1006E00010B50021A0F100634FF48042934204D37F
:1006F00045490144914201D2012182E0434901442C
:10070000914201D202217CE041490144914201D24F
:10071000032176E03F494FF480330144994201D2EE
:1007200004216EE03C4944184FF400318C4201D260
:10073000052166E0394C04448C4201D2062160E078
:10074000374C04448C4201D207215AE0354C044412
:100750008C4201D2082154E0334C04448C4201D233
:1007600009214EE0314C04448C4201D20A2148E078
:100770002F4C04448C4201D20B2142E0A0F10164D1
:10078000944201D20C213CE02A4C0444944201D210
:100790000D2136E0284C0444944201D20E2130E071
:1007A000264C0444944201D20F212AE0244A0244F8
:1007B0009A4201D2102124E0224A02448A4201D204
:1007C00011211EE0204A02448A4201D2122118E07F
:1007D0001E4A02448A4201D2132112E01C4A0244FA
:1007E0008A4201D214210CE01A4A02448A4201D200
:1007F000152106E0184A1044884201D2162100E073
:100800001721084610BD000000C0FFF70080FFF769
:100810000040FFF70000FFF70000FEF70000FCF7C4
:100820000000FAF70000F8F70000F6F70000F4F710
:100830000000F2F700C0EFF70080EFF70040EFF79D
:100840000000EFF70000EEF70000ECF70000EAF719
:100850000000E8F70000E6F70000E4F790F8351034
:10086000022903D08021416501207047052180F8CD
:1008700035100068016821F0010101600020704717
:1008800070B5044600F0B4F90546601C02D0044877
:100890000078044400F0ACF9401BA042FAD370BDCC
:1008A000A40000202DE9F047044623480F46017EAE
:1008B00001290AD00121804601764CF25039484680
:1008C000FFF7E6FE020003D030E00220BDE8F0872B
:1008D0004FF0FF3038602068184D012801D0A6681D
:1008E0001DE0207C6168FFF72DFE4846FFF7D0FE33
:1008F0000246286848F204018843286014E0217CFD
:100900003046FFF76FFD4846FFF7C2FE0200286839
:1009100020F0FA00286001D03E6005E0761CD4E9A2
:1009200002100844B042EAD8FFF786FD002188F89B
:1009300018101046CAE70000F4060020103C0240E0
:100940000348016841F00041016000207047000049
:10095000103C02402DE9F0471B4E05461446307E00
:100960001F468946012808D0012030764CF25038C5
:100970004046FFF78DFE18B114E00220BDE8F08775
:100980009DB1012D16D0022D19D022463B46484676
:10099000FFF708FE4046FFF77BFE0C490A6822F08D
:1009A00001020A6000213176E8E7E1B24846FFF72C
:1009B000E9FDEFE7A1B24846FFF708FEEAE7214666
:1009C0004846FFF715FEE5E7F4060020103C02401C
:1009D000074900200A68002A09DA054A054B0C3A43
:1009E0001360054B13600968002900DA0120704785
:1009F000103C024023016745AB89EFCD70470000F2
:100A0000044910B50A68024202D00860FFF7F6FFF9
:100A100010BD0000143C01402DE9F84FDFF890B103
:100A200000224FF001084FF0030A4FF00F090BF1BD
:100A3000040E00BF0B6808FA02F42340A3426ED1F3
:100A40004D68022D01D0122D0ED1D50800EB850C7A
:100A5000DCF820505607F70E09FA07F6B5430E6981
:100A6000BE402E43CCF82060066855000F790AFA84
:100A700005FC07F0030726EA0C06AF403743076082
:100A80004E68012E05D0022E03D0112E01D0122E59
:100A90000ED18768CE6827EA0C07AE403E438660D9
:100AA0004668A6430C79C4F3001494403443446070
:100AB000C4688E6824EA0C04AE402643C6604C68C5
:100AC000E4006FD53B4C256845F4804525602468DB
:100AD00022F0030504F480440094374C2E19D6F814
:100AE000084895072F0F09FA07F5AC43334DA84284
:100AF00001D100252EE0324DA84201D1012529E087
:100B0000304DA84201D1022524E02F4DA84201D149
:100B100003251FE02D4DA84202D104251AE041E033
:100B20002B4DA84201D1052514E02A4DA84201D140
:100B300006250FE0284DA84201D107250AE0274DE0
:100B4000A84201D1082505E0254DA84201D109257B
:100B500000E00A25BD402543C6F80858DBF80040F0
:100B60005D464E689C43F60300D51C432C60DEF8BE
:100B7000004075464E689C43B60300D51C432C606C
:100B80000B4D08352C684E689C43F60200D51C437B
:100B90002C60074D0C352C684E689C43B60200D57E
:100BA0001C432C60521C102AFFF444AFBDE8F88FA0
:100BB000003C014044380240003001400000024047
:100BC0000004024000080240000C024000100240F5
:100BD0000014024000180240001C024000200240A5
:100BE000002402400AB1816170470904FBE700005C
:100BF0000148806870470000A40000200248816816
:100C00000278114481607047A40000200B4810B5A1
:100C1000016841F400710160016841F48061016084
:100C2000016841F480710160032000F089F8002020
:100C300000F006F800F03EF8002010BD003C024035
:100C400010B5014688B00022192000F059F819208B
:100C500000F048F813480024016841F001010160E8
:100C6000006805A900F001000690684600F012F93E
:100C700000F040F90C494000B0FBF1F10C480B4A80
:100C8000491E026040F2E732C0E90324C0E90114C2
:100C900000F067FC10B1012008B010BD044800F05E
:100CA00099FCF9E74438024040420F00000001403F
:100CB000B40600200A4808B5016841F4804101608B
:100CC000006800F4804000900548001F016841F072
:100CD00080510160006800F08050009008BD000065
:100CE00044380240002809DB00F01F020121914036
:100CF0004009800000F1E020C0F8001170470000BA
:100D0000F0B40E4B1B680C46C3F30223C3F1070576
:100D1000042D00D90425191D072901D2002300E064
:100D2000DB1E012606FA05F1491E214099409E402E
:100D3000761E16403143F0BC01F0B8BB0CED00E06C
:100D4000064900F0070208684FF6FF03184040EA22
:100D50000220034A10430860704700000CED00E0D9
:100D60000000FA052DE9F0470E46050065D0DFF8D2
:100D70001481D8F80000F7B200F00F00B04207D29B
:100D800088F80070D8F8000000F00F00B04254D18D
:100D900028683D4C810712D5400703D5206840F4F0
:100DA000E05020602878000703D5206840F46040B8
:100DB00020602068A96820F0F000084320602878AF
:100DC000C0072DD0304968680839012812D00228A0
:100DD00013D0032811D00968890700292DDA21686A
:100DE00021F0030101432160FFF702FF814641F238
:100DF000883A0EE009688903EFE709688901ECE7A2
:100E0000FFF7F6FEA0EB0901514502D90320BDE82A
:100E1000F0872068696800F00C00B0EB810FEFD11B
:100E2000D8F80010404601F00F01B14207D9077011
:100E3000006800F00F00B04201D00120E7E72878F9
:100E4000400705D52068E96820F4E0500843206099
:100E50002878000706D52068296920F4604040EA18
:100E6000C100206000F056F82168084AC1F3031160
:100E7000515CC840064908600020FFF7E1FE0020F1
:100E8000C5E70000003C024008380240F432000888
:100E9000B00000200F2202600C4A136803F0030325
:100EA0004360136803F0F0038360136803F4E053B6
:100EB000C36012684FF4E05303EAD20202610448AF
:100EC000006800F00F00086070470000083802401A
:100ED000003C02400448054900680968044AC1F31F
:100EE0008221515CC8407047B000002008380240A1
:100EF000043300080448054900680968044AC1F33E
:100F00004231515CC8407047B000002008380240B0
:100F100004330008154810B5006810F00C0214489E
:100F200013D01449042A0FD0082A0ED10F4C241FC5
:100F30002268236802F03F025B0207D52068C0F3F5
:100F40008810A0FB010106E0084610BD2168C1F32E
:100F50008811A1FB00010023FFF744F92168C1F3C8
:100F60000141491C4900B0FBF1F010BD08380240B6
:100F70000024F40040787D012DE9F84F050076D07B
:100F80002878DFF8F8B2BE4CC00749D0DBF8001073
:100F90005846C1F38101012908D00068C0F38100DF
:100FA00002280AD1201D0068400206D5206880036F
:100FB00036D568680028E2D032E06868B0F5803F36
:100FC00010D0B0F5A02F206810D020F48030206021
:100FD000206820F4802020606868A0B1FFF708FE38
:100FE00006460CE0206840F48030F4E740F48020AE
:100FF0002060F7E7FFF7FCFD801B642873D82068AA
:101000008003F7D50CE0FFF7F3FD064605E000BFCF
:10101000FFF7EEFD801B6428F0D820688003F7D42A
:101020002878DFF8608280074FF000093ED5DBF8B2
:101030000010584611F00C0F09D00068C0F3810071
:1010400002280BD18D48001F0068400206D420689A
:10105000800715D5E868012809D111E0E868B8B122
:101060000120C8F80000FFF7C3FD064605E002E1D5
:10107000FFF7BEFD801B0228C0D820688007F7D587
:101080002068296920F0F80040EAC10020600DE0E6
:10109000C8F80090FFF7ACFD064604E0FFF7A8FD96
:1010A000801B02281FD820688007F7D42878000703
:1010B00022D5724E744869696C3671B101210160A4
:1010C000FFF796FD074604E0FFF792FDC01B0228DC
:1010D00009D830688007F7D50EE0C0F80090FFF718
:1010E00087FD074605E083E0FFF782FDC01B02286D
:1010F0007ED830688007F7D42878400768D5DFF8B5
:101100007CA100270AF1380ADAF80000C0000BD4ED
:10111000DAF8001041F08051CAF80010DAF8000047
:10112000012700F080500090584E3068C00510D460
:10113000306840F480703060FFF75AFD009005E0A1
:10114000FFF756FD0099401A022851D83068C005B3
:10115000F6D54A4EA868683601280FD005283068B1
:1011600010D020F001003060306820F004003060C2
:10117000A868B8B1FFF73CFD00900FE0306840F080
:101180000100F4E740F004003060F7E7FFF730FDBE
:101190000099411A41F28830814264D83068800752
:1011A000F4D50EE0FFF724FD009007E0FFF720FDE7
:1011B0000099411A41F28830814254D83068800742
:1011C000F4D42FB1DAF8001021F08051CAF80010E1
:1011D000A869C0B3DBF80010C1F3810102294AD02D
:1011E0000228484607D0C8F86000FFF701FD00E07C
:1011F00039E005463AE04746C8F86000FFF7F8FCDA
:10120000064604E0FFF7F4FC801B02282BD8206878
:101210008001F7D4D5E907010843A96A1C4A4908A7
:1012200002EB01416A6A41EA8211084395F82C10E9
:1012300040EA01611148001F016001203866FFF794
:10124000D7FC054605E014E0FFF7D2FC401B02285E
:1012500009D820688001F7D50BE000BFFFF7C8FC74
:10126000401B022802D90320BDE8F88F20688001C6
:10127000F4D40020F8E70120F6E700000838024027
:101280000038024000004742800E47420070004094
:101290000000FFFF70B5040005D00025A56294F89A
:1012A000510010B106E0012070BD84F85050204676
:1012B00000F030F8022084F851002068016821F025
:1012C00040010160D4E901010843D4E9031211434C
:1012D000084361690843218B01F400710843E16907
:1012E0000843216A0843A16A084321680860A0698D
:1012F000042101EA1040616A0843216848602068BF
:10130000C16921F40061C1616565012084F8510063
:10131000002070BD10B586B0044614216846FEF763
:1013200099FF13492068884220D1124800210268A1
:1013300042F480520260006800F4805005900D482D
:101340001438026842F001020260006800F00100F7
:101350000590E02000900220CDE9010103200390D8
:101360000520049069460448FFF756FB06B010BDFF
:101370000030014044380240000002402DE9F84F9F
:10138000044690F8500000270A9E1D4692468B4660
:101390004FF0010901280ED0012084F85000FFF71A
:1013A00027FC804694F85100616801280CD0B1F503
:1013B000827F07D102E00220BDE8F88FA16809B959
:1013C000042801D00227C2E0BBF1000F27D0BAF1F8
:1013D000000F24D01DB394F85100042802D005203A
:1013E00084F8510000206065C4F838A0E587A5871F
:1013F000C4F830B0E586A586206460642068016882
:10140000490603D4016841F040010160E068B0F58D
:10141000006F606805D0E8B3012D46D07FE001275A
:1014200095E008B1012D39D1206B21680088C86092
:10143000206B801C2063E08E401EE0862EE020683A
:10144000816889070FD5E18E69B1B9F1010F0AD121
:10145000216B0988C160206B801C2063E08E401ED8
:10146000E0864FF0000920688168C9070CD0E18F41
:1014700051B1C068A16B0880A06B801CA063E08F95
:10148000401EE0874FF00109FFF7B2FBA0EB080018
:10149000B04200E009E001D3701C50D1E08E00287A
:1014A000CDD1E08F0028CAD13FE0206B21680078C1
:1014B0000873206B401C2063E08E401EE0862EE007
:1014C0002068816889070FD5E18E69B1B9F1010FF4
:1014D0000AD1216B09780173206B401C2063E08ED8
:1014E000401EE0864FF0000920688168C9070CD0D3
:1014F000E18F51B1C068A16B0870A06B401CA06364
:10150000E08F401EE0874FF00109FFF771FBA0EB71
:101510000800B04202D3701C01D010E07EB1E08E12
:101520000028CDD1E08F0028CAD14246314620465E
:1015300000F0B5FB28B101272020606507E00327F4
:1015400005E0A06818B92068C16880680090012093
:1015500084F85100002084F8500038462CE770478A
:10156000704710B5040003D094F83D0010B107E0B7
:10157000012010BD002084F83C00204600F00CF84B
:10158000022084F83D00211D206800F093FC01201A
:1015900084F83D00002010BD08B500680B49884262
:1015A00012D10B48016841F48021016000680022DB
:1015B00000F48020009011461A20FFF7A1FBBDE83F
:1015C00008401A20FFF78EBB08BD0000004801400C
:1015D000443802400168CA6842F00102CA600068EB
:1015E000816801F00701062903D0016841F001017B
:1015F000016000207047704770B5044600680169BB
:101600004FF00005C943890715D4C168C94389074C
:1016100011D4E91E016101202077206880698007CC
:10162000204602D0FFF7E7FF04E000F098F82046DC
:1016300000F096F8257720680169C943490717D457
:10164000C168C943490713D46FF004010161022046
:1016500020772068806910F4407F204602D0FFF791
:10166000CAFF04E000F07BF8204600F079F8257707
:1016700020680169C943090716D4C168C94309072D
:1016800012D46FF008010161042020772068C0693E
:101690008007204602D0FFF7AEFF04E000F05FF8BD
:1016A000204600F05DF8257720680169C943C90626
:1016B00017D4C168C943C90613D46FF01001016182
:1016C000082020772068C06910F4407F204602D0AF
:1016D000FFF791FF04E000F042F8204600F040F8E8
:1016E000257720680169C943C90708D1C168C94382
:1016F000C90704D1891E0161204600F033F8206833
:101700000169C943090609D4C168C943090605D45A
:101710006FF0800101612046FFF721FF2068016919
:10172000C943490609D4C168C943490605D46FF0C5
:1017300040010161204600F025F820680169C94395
:1017400089060BD4C168C943890607D46FF020010C
:1017500001612046BDE87040FFF702BF70BD7047D1
:101760007047000000680549884201D1FFF746BA7A
:101770000349884201D101F047BC70470000014095
:10178000004801407047704770B502680446106811
:10179000D168536910F00F0F51D003F0010501F427
:1017A000907635435DD0C20705D0CA0503D5E26BFC
:1017B00042F00102E263420705D5DA0703D0E26B8B
:1017C00042F00202E263820705D5DA0703D0E26B3A
:1017D00042F00402E263020705D5DA0703D0E26BA8
:1017E00042F00802E263E26B002A34D0800604D59E
:1017F000880602D5204600F0D7FB20684069E16BDF
:10180000C0F3801001F008010143204624D000F00D
:10181000BDFB2068416949061AD5416921F04001A4
:101820004161606BA0B11B490165606BFFF716F861
:10183000002810D0606B016DBDE87040084783063A
:101840000FD58B060DD52046BDE8704000F0ACBB2F
:101850002046FFF798FF70BDFFF795FF0020E0637B
:1018600070BD030606D50B0604D52046BDE87040C2
:1018700000F03CBD4006F3D54806F1D5D1682046BE
:1018800021F04001D160202184F8391000F027F9BF
:1018900070BD00007D1F000870B5040004D094F8EE
:1018A0003900002510B106E0012070BD84F83850E1
:1018B000204600F023F8242084F839002068C1680D
:1018C00021F40051C160204600F0BAFB2068016994
:1018D00021F4904101612068416921F02A014161B0
:1018E0002068C16841F40051C160E563202084F89C
:1018F000390084F83A00002070BD000010B586B0B1
:10190000044614216846FEF7A5FC18492068884261
:1019100029D11748016841F010010160006800F00A
:101920001000059012481438016841F0010101606F
:101930000068694600F0010005904FF4C060009017
:1019400002200190012002900320039007200490C0
:101950000848FFF761F8002211462520FFF7D0F96B
:101960002520FFF7BFF906B010BD000000100140B0
:10197000443802400000024090F83A30202B22D137
:10198000F9B1F2B190F83830012B1CD08162828518
:10199000C2850021C163222280F83A2080F83810E5
:1019A0000168CA6842F48072CA6001684A6942F0FC
:1019B00001024A610068C16841F02001C160002055
:1019C00070470120704702207047000010B5006882
:1019D000104988421CD1104C214694F833000978F4
:1019E0000D2808D0621C885420780C49401C2070B7
:1019F0000120087004E0626B601C9047002020709A
:101A000005490122BDE8104033310548FFF7B4BF56
:101A100010BD00000010014014070020B400002099
:101A2000740600202DE9F843044690F839001F465B
:101A300016460D46202850D1A5B19EB194F8380025
:101A400001284AD0012084F838004FF00008C4F87B
:101A50003C80212084F83900FFF7CAF8A68481462B
:101A6000E68426E00120BDE8F883E08C401EE08497
:101A7000A0684B46B0F5805F4FF000024FF0800148
:101A80002046009703D000F062FCE8B90DE000F0BA
:101A90005EFCC8B928882168C0F308004860206946
:101AA00008B16D1C05E0AD1C03E0216815F8010BC1
:101AB0004860E08C0028D8D14B46002240212046C7
:101AC000009700F044FC08B10320CCE7202084F804
:101AD000390084F838800020C5E70220C3E770474A
:101AE000FEE700002DE9F04387B014216846FEF7B9
:101AF000B1FB37480024016841F0800101600168B2
:101B000001F080010591016841F001010160016867
:101B100001F001010591016841F0040101600168D3
:101B200001F004010591016841F040010160006885
:101B3000284F00F040000590002208213846FFF7AA
:101B400051F8DFF89480002210214046FFF74AF850
:101B5000DFF888904FF4C046002231464846FFF730
:101B600041F8112000901E48CDE90104694638462D
:101B7000FEF752FF082000900125CDE90154694687
:101B800038460394FEF748FF10200090CDE9015439
:101B9000694640460394FEF73FFF0096CDE90154A5
:101BA000694648460394FEF737FF00221146062097
:101BB000FFF7A6F80620FFF795F8002211460A2045
:101BC000FFF79EF80A20FFF78DF807B0BDE8F08315
:101BD0003038024000000240000802400018024075
:101BE000000011100C480B494FF4007201604FF4D3
:101BF0008271416000218160C1600161C0E905120C
:101C00000822C0E90721416281620A21C162FFF70F
:101C100041BB000000300140DC05002070B50846E3
:101C2000084C00F077FD084A00216518535CAB7141
:101C300008B1435C00E0FF236354491CC9B2062984
:101C4000F3D370BDF40000203C00002070B50D46B9
:101C5000064600F10E04FFF7E1FF0E490820B081AF
:101C600008694023401C0861A3710022E2712372BD
:101C7000C0F3072343EA0020A08045202070627053
:101C800025610868E060628114212046FEF775FB3B
:101C9000608170BD28000020FEE77047704738B5AE
:101CA0000B46009204460022802100F008F800282C
:101CB00004D0606D40F020006065032038BD2DE940
:101CC000F0411D4617460E460446DDF8188008E030
:101CD000681C06D0FEF78CFFA0EB0800A8420BD2D0
:101CE00055B12068806836EA000030D00020B84244
:101CF000EED10020BDE8F0812068416821F0E001CC
:101D000041606068B0F5827F0BD1A068B0F5004FEC
:101D100002D0B0F5806F04D12068016821F0400145
:101D20000160A06AB0F5005F09D12068016821F464
:101D3000005101602068016841F4005101600120F8
:101D400084F85100002084F850000320D2E70120DD
:101D5000CDE770470F4800B501688DB00E4A1140BD
:101D6000B1F1005F0CD00DA1684600F08BFB684616
:101D7000FEF77BFAC1B2684600F032FD0DB000BD3F
:101D800041680E4A91615161006880F30888884774
:101D9000F4E70000008000080000FE2F7468657200
:101DA00065206973206E6F207573657220636F64A0
:101DB0006520212121200D0A00000000480000209C
:101DC0007047000030B593B030216846FEF742FA04
:101DD00014210CA8FEF73EFA19480025016841F0CD
:101DE00080510160006800F0805011901548016832
:101DF00041F4404101600068022400F44040119029
:101E00000120039010200490009406940820CDE94E
:101E10000750A020CDE9090404200B906846FFF785
:101E2000ABF80CA90F2081E831004FF4A0500F90BF
:101E3000E002109005210CA8FEF794FF13B030BD0E
:101E400040380240007000401048016841F47001C1
:101E500001600F48016841F0010101600C4A002156
:101E60000832116002680B4B1A400260031D0A4AD7
:101E70001A60026822F48022026005480C3001607A
:101E800002495806803908607047000088ED00E07C
:101E900000380240FFFFF6FE103000240148FFF733
:101EA000ABBB0000340600200148FFF7A5BB0000D3
:101EB000B4060020F0B50268254C264D264E274F6B
:101EC000274B4FF0804CA04209D0604507D0A84274
:101ED00005D0B04203D0B84201D0984204D122F0DC
:101EE000700E4A6842EA0E02A0421BD0604519D02B
:101EF000A84217D0B04215D0B84213D0984211D0A2
:101F0000184DA8420ED0184DA8420BD0174DA8422C
:101F100008D0174DA84205D0164DA84202D0164D44
:101F2000A84203D122F44075CA682A434D6922F0C1
:101F300080022A4302608A68C2620A688262A04202
:101F400001D0984201D10969016301214161F0BDCD
:101F5000000001400004004000080040000C004068
:101F6000000401400040014000440140004801409D
:101F700000180040001C00400020004010B5806B9D
:101F80000021C185C184FFF7FEFB10BD0168CA684E
:101F900022F49072CA6001684A6922F001024A6123
:101FA000202180F83A10704710B590F83A10222995
:101FB00001D0022010BD8168B1F5805F11D00169A8
:101FC000002901681FD0496801F07F03816A4A1C1B
:101FD00082620B70C18D491E0904090CC18518D09D
:101FE0002BE00269816A002A0268526805D0D2B2E9
:101FF0000A80816A491C8162ECE7C2F308020A8008
:10200000816A891CF7E74A68816A4B1C83620A70FF
:10201000E0E70168CA6822F02002CA600168CA6865
:1020200022F48072CA6001684A6922F001024A61A2
:10203000202180F83A10FFF7C9FC002010BD0000F5
:102040002DE9F041044600680169E26821F440513D
:10205000114301612169A068E26908436169114384
:1020600022680843D16849F20C6399430143D16067
:1020700020684169A26921F4407111434161E2691C
:102080006425B2F5004F9748974922684FF032080F
:102090003FD08A4201D082427CD1FEF72BFF00EB79
:1020A000C00101EB001061688900B0FBF1F6FEF79A
:1020B00021FF00EBC00101EB001061688900B0FB5B
:1020C000F1F0B0FBF5F06FF01801484306EB80012A
:1020D00008EB0110B0FBF5F000F0F006FEF70AFF88
:1020E00000EBC00101EB001061688900B0FBF1F06A
:1020F000B0FBF5F006EB0016FEF7FCFE00EBC001AE
:1021000001EB001061688900B0FBF1F7FEF7F2FE09
:10211000D2E08A4201D082423DD1FEF7EBFE00EBD5
:10212000C00101EB001061684900B0FBF1F0B0FBA9
:10213000F5F00601FEF7DEFE00EBC00101EB00103A
:1021400061684900B0FBF1F7FEF7D4FE00EBC00177
:1021500001EB001061684900B0FBF1F0B0FBF5F055
:102160006FF01801484307EB800108EBC100B0FB9A
:10217000F5F000F0F80006EB4006FEF7BBFE00EBC2
:10218000C00101EB001061684900B0FBF1F7FEF7F8
:10219000B1FE3CE055E0FEF79DFE00EBC00101EB17
:1021A000001061684900B0FBF1F0B0FBF5F00601EA
:1021B000FEF790FE00EBC00101EB001061684900E2
:1021C000B0FBF1F7FEF786FE00EBC00101EB00105B
:1021D00061684900B0FBF1F0B0FBF5F06FF0180159
:1021E000484307EB800108EBC100B0FBF5F000F0BD
:1021F000F80006EB4006FEF76DFE00EBC00101EBB8
:10220000001061684900B0FBF1F7FEF763FE00EBD8
:10221000C00101EB001061684900B0FBF1F0B0FBB8
:10222000F5F06FF01801484307EB800108EBC1009F
:10223000B0FBF5F000F00700216830448860BDE88D
:10224000F081FEF747FE00EBC00101EB0010616872
:102250008900B0FBF1F6FEF73DFE00EBC00101EB9B
:10226000001061688900B0FBF1F0B0FBF5F06FF091
:102270001801484306EB800108EB0110B0FBF5F0B4
:1022800000F0F006FEF726FE00EBC00101EB0010A7
:1022900061688900B0FBF1F0B0FBF5F006EB0016C9
:1022A000FEF718FE00EBC00101EB00106168890029
:1022B000B0FBF1F7FEF70EFE00EBC00101EB0010E2
:1022C00061688900B0FBF1F0B0FBF5F06FF0180128
:1022D000484307EB800108EB0110B0FBF5F000F07C
:1022E0000F00A9E7001401400010014090F83910D8
:1022F000212901D0022070478168B1F5805F016A11
:102300000BD04A1C0262026809785160C18C491ED8
:102310000904090CC1840ED017E009880268C1F3D2
:102320000801516001690029016A02D0491C01625B
:10233000ECE7891CFBE70168CA6822F08002CA60EA
:102340000068C16841F04001C160002070472DE97C
:10235000F041984617460E460446069D1DE0681C4F
:102360001BD02DB1FEF744FCA0EB0800A84214D905
:102370002068C16821F4D071C1602068416921F0F2
:1023800001014161202084F8390084F83A000020DE
:1023900084F838000320BDE8F0812068006836EA40
:1023A000000004D00020B842D9D00020F3E701207B
:1023B000F9E7000010B500220A4B01E0521CD2B22E
:1023C00033F8324014B1052AF8D301E0052A01D3CD
:1023D000002010BD23F8320003EBC2004160012051
:1023E00010BD0000A405002070B50E460146174C34
:1023F00070BA0831608450BAA08488B241BAE184CE
:10240000143081B248BA04F10E050E3168801120F3
:102410008EB2687219462046FFF718FC002020850E
:10242000688841BA2878083100F00F00A1EB8000DD
:1024300081B201F1090205F10C00FDF79EFF208534
:1024400021463046BDE8704000F0E0BAF4000020BC
:1024500010B50021064A0B4632F83140844201D1C2
:1024600022F83130491CC9B20529F5D310BD00004E
:10247000A40500200148FFF787B90000740600207A
:10248000FEE700000FB4084B10B504A902AA039898
:1024900000F02CF8044602A9002000F003F92046C1
:1024A00010BC5DF814FB0000A52600080907090E02
:1024B000002804DB00F1E02080F80014704700F0F1
:1024C0000F0000F1E02080F8141D704702E008C8FA
:1024D000121F08C1002AFAD170477047002001E09E
:1024E00001C1121F002AFBD1704700002DE9FF4FE8
:1024F0008BB09A460F460546002606E025280BD0ED
:1025000052460D9990476D1C761C28780028F5D10D
:102510000FB03046BDE8F08F0024A046012260498C
:1025200000E0044315F8013F203B02FA03F00842A3
:10253000F7D128782E2817D115F8010F44F004049C
:102540002A280ED06FF02F022878A0F13001092937
:102550000AD808EB880102EB410100EB01086D1C71
:10256000F2E757F8048B6D1C287869283ED006DC0A
:102570000028CDD063280BD0642804D136E073281E
:1025800010D075284BD052460D999047761C85E0A7
:1025900017F8040B8DF8000000208DF80100E946C3
:1025A000012003E057F8049B4FF0FF3061074FF024
:1025B000000401D40AE0641C44450DDA8442FADBCD
:1025C00019F804100029F6D106E0641C8442FCDBF3
:1025D00019F804100029F8D1264404E019F8010B79
:1025E00052460D999047641EF8D257E001CF4FF044
:1025F0000A0B002802DA40422D2102E0210504D511
:102600002B218DF82410012103E0E10705D02021C2
:10261000F7E70DF1200908910CE00021F9E701CF5F
:102620004FF00A0BF9E75946FDF735FE01F130028C
:1026300009F8012D0028F6D1ADEB090000F1200BBF
:10264000600701D44FF00108D84502DDA8EB0B006C
:1026500000E000208046002406E009A85246005D04
:102660000D999047641C761C08988442F5DB04E0C1
:10267000302052460D999047761CB8F10001A8F120
:102680000108F5DC05E019F8010B52460D99904759
:10269000761CBBF10001ABF1010BF4DC6D1C34E7DF
:1026A000092801000A68531C0B6010707047000075
:1026B000F0B50022164B642602EB420453F8244086
:1026C000844205D102EB420003EB80008672F0BD2C
:1026D000521CD2B2052AEFD35FF0000202EB420493
:1026E00053F8245025B1521CD2B2052AF6D3F0BDBE
:1026F000002203EB84058F5C05EB020C521CD2B266
:102700008CF80470062AF6D343F82400AE72F0BDAC
:10271000B8000020094A002101EB410352F82330A0
:10272000834205D101EB410002EB8000001D7047A0
:10273000491CC9B20529EFD300207047B80000201A
:102740002DE9F041234C2248234D20600E3060607B
:1027500081692A68914239D1C28800F10801D0F814
:102760000E004FF40076B2F5807F05D0B2422DD135
:10277000BDE8F041FFF79CBFFFF79AFF6068D0F813
:102780000E101348FFF74AFA21684FF4C1608881A0
:10279000616800200A18401C137AC0B293740A289A
:1027A000F8D30E4A616800200F18135C401CC0B2B9
:1027B0003B720628F8D360682968C0F80E10C680FE
:1027C000BDE8F04102493C2000F020B9BDE8F081AD
:1027D000F40000200C000020280000203C00002015
:1027E0000A4610B501460A230348FFF71BF90349BF
:1027F0000020087010BD000074060020140700209F
:1028000010B50446012210214B48FEF7EBF9FF22D8
:102810000021104600F0F0F93220FEF731F8474968
:10282000002048800146082000F0BEF90021092060
:1028300000F0BAF900210C2000F0B6F900210D20BB
:1028400000F0B2F9FF210A2000F0AEF919210B20A7
:1028500000F0AAF90021042000F0A6F91A210520B1
:1028600000F0A2F9FF21062000F09EF91F210720A9
:1028700000F09AF9B021382000F096F93F21282085
:1028800000F092F93021292000F08EF9F921302052
:1028900000F08AF9F721312000F086F90D21C020DF
:1028A00000F082F90021C12000F07EF93222C2211D
:1028B000802000F0A1F91221C62000F075F90C214A
:1028C000C72000F071F91221C42000F06DF9DC215D
:1028D000CA2000F069F90521CB2000F065F92178C4
:1028E000E42000F061F96178E52000F05DF9A1785D
:1028F000E22000F059F9E178E32000F055F9217960
:10290000E02000F051F96179E12000F04DF94FF439
:102910008071102000F0CDF81F2000F02DF9C022AA
:102920001B21802000F068F904221F21BDE810401F
:10293000802000F061B90000000802400000002083
:102940002DE9F04106468846392000F0CAF80028F3
:1029500058D02D4C0020A17800F026F96088C0F3F3
:102960000721012000F020F900213A2000F0E2F8D0
:10297000608000213A2000F0DDF8618841EA002003
:10298000608000213A2000F0D5F8054600213A2069
:1029900000F0D0F845EA0020001F85B200213A205F
:1029A00000F0C8F8074600213A2000F0C3F8761E70
:1029B00047EA0020B54200DDB5B2000601D400258B
:1029C00003E04146284600F097F8B4F90200401EA3
:1029D000B0F5D05F05DBFF210C2000F0E5F81921F0
:1029E00007E0C1B20C2000F0DFF86088401EC0F3A1
:1029F00007210D2000F0D8F840221E21802000F091
:102A0000FBF82846BDE8F0810000002070B50E46B6
:102A100005460EE01C2000F064F8800709D58022EE
:102A20001F21104600F0E8F880221F21A02000F0AE
:102A3000E3F81F21002000F07DF80007EAD4002110
:102A4000022000F0B1F81A21032000F0ADF805F5DE
:102A5000D054E1B2062000F0A7F8C4F30721072004
:102A600000F0A2F8002211467A2000F0C5F83146A5
:102A7000284600F0A5F8BDE8704008221F218020FC
:102A800000F0BAB810B50146D42000F08DF801214D
:102A9000D22000F089F8EA2000F023F8C007FAD12C
:102AA0000021D22000F080F8BDE81040D92000F0CD
:102AB00018B810B50C460146D42000F075F8E1B204
:102AC000D62000F071F8210AD72000F06DF802E05E
:102AD0000120FDF7D5FEEA2000F003F8C007F7D18A
:102AE00010BD10B5044600F047F82146BDE810407F
:102AF000002000F01FB8000070B50D4E0C460546D2
:102B0000002210213046FEF76DF83A20FDF752FC06
:102B100004E00020FDF74EFC04F8010B6D1EADB281
:102B2000F7D23046BDE8704001221021FEF75AB8B6
:102B30000008024070B50F4E0C46054600221021D9
:102B40003046FEF74FF804F01F002843FDF732FC33
:102B5000FF20FDF72FFC0546200603D5FF20FDF7DB
:102B600029FC0546012210213046FEF73BF8284695
:102B700070BD00000008024070B50A4D044600F028
:102B80006006287886420BD003221F21A02000F087
:102B900033F8C4F341121F21802000F02DF82E706D
:102BA00070BD00000000002070B50C460546FFF720
:102BB000E3FF22462946BDE87040402000F01CB8E3
:102BC00070B50C4E0C460546002210213046FEF72B
:102BD00009F87A2002E000BF14F8010BFDF7EAFBC8
:102BE0006D1EADB2F8D23046BDE870400122102112
:102BF000FDF7F8BF000802402DE9F0410B4E1746E3
:102C00000C460546002210213046FDF7EBFF04F08C
:102C10001F002843FDF7CEFB3846FDF7CBFB3046BF
:102C2000BDE8F04101221021FDF7DCBF00080240A1
:102C300010B57220FFF755FF052801D9401CC0B21E
:102C400010BD10B51120FFF71DFFC0F3800010BDAF
:102C500010B50D494FF49660FFF772FE002812D0B0
:102C600009488089082806D0B0F5C16F0BD1BDE8AE
:102C70001040FFF765BD0448C07D112803D1BDE8B1
:102C8000104000F007BB10BDF40000200948FFF71A
:102C9000B7FDFFF7CDFF07491C39487000F02CFA4B
:102CA000054800F047F9132104A0FFF799FDFDF74F
:102CB00039FB0000640000203D2D000853544D33C3
:102CC0003220424F4F544C4F41444552200D0A0090
:102CD000FDF79CFFFFF776F8FEF704FFFEF782FF93
:102CE000124811490024016040F23F61C0E901141B
:102CF0000F49C0E903148461FEF733FC0B480D490A
:102D0000403001604FF4E131C0E901140C21C4608E
:102D1000C0E904418461C461FEF7BEFD00F090F992
:102D2000FFF7B4FFFEE70000004801403406002032
:102D30009F8601000010014070470000F0B58DB083
:102D40000546002401225349FDF796FA514EE8B397
:102D500001223446711C2846FDF78EFA002855D012
:102D60000122A11C2846FDF787FA00285BD001222A
:102D7000E11C2846FDF780FA464F0126223F002835
:102D80006DD00122211D2846FDF776FA002874D067
:102D90000122611D2846FDF76FFA002834D13EA1BB
:102DA0006846FFF76FFB6846FDF75FFAC1B26846F9
:102DB000FFF716FDBFF34F8F3A4801683A4A01F416
:102DC000E06111430160BFF34F8F00E001E000BFFD
:102DD000FBE736A16846FFF755FB6846FDF745FA65
:102DE000C1B26846FFF7FCFC325D32A16846FFF7CE
:102DF00049FB6846FDF739FAC1B26846FFF7F0FCB7
:102E0000641CE4B2062CEFD30DB0F0BD2BA16846D4
:102E1000FFF738FB6846FDF728FAC1B26846FFF7AE
:102E2000DFFC2AA110E02FA16846FFF72BFB6846C4
:102E3000FDF71BFAC1B26846FFF7D2FCFDF74AFB6B
:102E40002C48FDF723FB2CA16846FFF71BFB6846C7
:102E5000FDF70BFAC1B26846FFF7C2FCD4E72CA11C
:102E60006846FFF70FFB6846FDF7FFF9C1B26846F9
:102E7000FFF7B6FCBE70C7E7FFE729A16846FFF77A
:102E800001FB6846FDF7F1F9C1B26846FFF7A8FCFF
:102E90003E70B9E76A0000205245534554200D0AA0
:102EA000000000000CED00E00400FA0548454C501D
:102EB000200D0A0025630D0A00000000494E495408
:102EC00020454E433238200D0A000000494E495437
:102ED00020454E43323820436F6D706C65746564D5
:102EE0000D0A0000455241534520464C41534820AD
:102EF0000D0A000000800008455241534520464C11
:102F000041534820436F6D706C657465640D0A0011
:102F10004C4F414420464C415348200D0A000000CC
:102F200053544152205553455220464C415348205A
:102F30000D0A000010B50446012205490548FEF7B8
:102F40001BFD0348002133380170446310BD0000AD
:102F5000470700207406002010B5FFF772FE0149F4
:102F6000087010BD7000002070B516480124164E80
:102F700000788EB0012822D0351F14A16878401C3B
:102F8000C2B26A706846FFF77DFA6846FDF76DF9D0
:102F9000C1B26846FFF724FC68780F280DD174761B
:102FA00013A16846FFF76EFA6846FDF75EF9C1B2F5
:102FB0006846FFF715FC134804700EB070BD7476B8
:102FC000FBE70000B400002074000020507265731D
:102FD0007320416E79204B6579204C6566742054CE
:102FE000696D65203A256420736E0D0A00000000AB
:102FF000476F746F20557365722053706163650D60
:103000000A0000004800002070B50C4E002400BFEC
:1030100004EB440006EB8005687848B9A888401E98
:103020000004000CA88003D1A86880476888A880A5
:10303000641CE4B2032CEBD370BD000074000020CC
:103040000148FEF7C7BA000034060020F0B4254856
:103050000022012100F82A2F234B41700221801CFD
:1030600005E000BF491C00F8014BC9B25B1C1C788D
:10307000002CF7D102706F2646706323837074238F
:10308000C3706524047143718271C371692505722F
:103090006D2747728472C6727526067343738273F6
:1030A0003523C3730274622646746C2686746B26BD
:1030B000C6747326067545757A258575C4750276BE
:1030C0004376312383763223C37602771D31C8B22B
:1030D0000749064B45220B6006490B608988F0BC06
:1030E000FFF782B9F400002014000020C0A802A855
:1030F00044000020CC0500200C480D4A002102604D
:1031000001616FF07F4242600A4A11600A4A8160A1
:103110001160C1601430AA21017041708170BB211F
:10312000C1700171BC21417100F0D6B828000020A7
:10313000C0A802B104000020080000202DE9F041E1
:103140004849494B8EB0887B002600F00F020846A4
:10315000464C00EB82051E8105F10E00D1F81A10D5
:10316000226816358A421DD101884FF4806749BA1A
:10317000E180698849BAA181808841BA08398AB258
:10318000228140BA98802888B0F5C06F0DD0B0F584
:10319000407F13D0B0F5A06F04D1A088FFF758F995
:1031A000FEF7D8FD0EB0BDE8F0812F806E80E2887A
:1031B000A18804202368FFF717F9F3E72A48294973
:1031C000DFF8ACC0C0682E310CEB4020B2F5017FB7
:1031D00021D2042A08D0121F92B2930740D00123B3
:1031E00003EB9202FDF782F92F802681E288A18805
:1031F00004202368FFF7F8F8A088FFF729F91DA13C
:103200006846FFF73FF96846FDF72FF8C1B26846F8
:10321000FFF7E6FAC4E79846121FD31702EB937242
:103220009210FDF763F910B1A088FFF711F92F8014
:103230002681D8F80C100420491CC8F80C10E2882C
:10324000A1882368FFF7D0F811A16846FFF71AF9A3
:103250006846FDF70AF8C1B26846FFF7C1FAA1E770
:103260009208BFE7F400002048000020CC050020B1
:10327000008000080D0A4C4F414420464C41534801
:1032800020434F4D504C455445440D0A000000006A
:10329000230000000E4930B4897B0D4A01F00F0174
:1032A00002EB810200200B490E3201E0401CC0B24B
:1032B00031F83030002B08D0548864BAA342F5D1DD
:1032C00001EBC000406830BC004730BC70470000D4
:1032D000F4000020A405002000200549024600BF9C
:1032E00021F83020401CC0B20528F9D370470000F7
:1032F000A4050020000000000000000001020304FB
:103300000607080900000000010203042C3300082E
:1033100000000020B8000000CC240008E4330008BE
:10332000B8000020980A0000DC240008000000001B
:10333000000000000000000000000000000000008D
:1033400068616B616E2E62696E0000000000000013
:10335000000000000000000000000000000000006D
:10336000000000000000000000000000000000005D
:10337000000000000000000000000000000000004D
:10338000000000000000000000000000000000003D
:10339000AAAAAABBBBBC3F69646C726D02000000A4
:1033A0000000010001000000592F00080101010088
:1033B00001000000392D000802000100010000009A
:1033C000692F000803010000000000000000000059
:1033D0000100000010000000000000000024F400C4
:0433E00000000000E9
:04000005080001AD41
:00000001FF
